{"abi":[{"type":"constructor","inputs":[],"stateMutability":"nonpayable"},{"type":"function","name":"deleteUser","inputs":[{"name":"_user","type":"address","internalType":"address"}],"outputs":[],"stateMutability":"nonpayable"},{"type":"function","name":"getDetails","inputs":[{"name":"_user","type":"address","internalType":"address"}],"outputs":[{"name":"","type":"string","internalType":"string"},{"name":"","type":"uint256","internalType":"uint256"},{"name":"","type":"string","internalType":"string"}],"stateMutability":"view"},{"type":"function","name":"getOwner","inputs":[],"outputs":[{"name":"","type":"address","internalType":"address"}],"stateMutability":"view"},{"type":"function","name":"owner","inputs":[],"outputs":[{"name":"","type":"address","internalType":"address"}],"stateMutability":"view"},{"type":"function","name":"store","inputs":[{"name":"_name","type":"string","internalType":"string"},{"name":"_age","type":"uint256","internalType":"uint256"},{"name":"_email","type":"string","internalType":"string"}],"outputs":[],"stateMutability":"nonpayable"},{"type":"function","name":"updateDetail","inputs":[{"name":"_name","type":"string","internalType":"string"},{"name":"_age","type":"uint256","internalType":"uint256"},{"name":"email","type":"string","internalType":"string"}],"outputs":[],"stateMutability":"nonpayable"}],"bytecode":{"object":"0x6080604052348015600e575f5ffd5b50335f5f6101000a81548173ffffffffffffffffffffffffffffffffffffffff021916908373ffffffffffffffffffffffffffffffffffffffff160217905550610b5b8061005b5f395ff3fe608060405234801561000f575f5ffd5b5060043610610060575f3560e01c806330289c61146100645780635c60f2261461009657806364493bc2146100b2578063662438b5146100ce578063893d20e8146100ea5780638da5cb5b14610108575b5f5ffd5b61007e6004803603810190610079919061055d565b610126565b60405161008d93929190610610565b60405180910390f35b6100b060048036038101906100ab919061055d565b6102bb565b005b6100cc60048036038101906100c791906107a9565b610322565b005b6100e860048036038101906100e391906107a9565b6103bb565b005b6100f261044f565b6040516100ff9190610840565b60405180910390f35b610110610476565b60405161011d9190610840565b60405180910390f35b60605f60605f60015f8673ffffffffffffffffffffffffffffffffffffffff1673ffffffffffffffffffffffffffffffffffffffff1681526020019081526020015f206040518060600160405290815f8201805461018390610886565b80601f01602080910402602001604051908101604052809291908181526020018280546101af90610886565b80156101fa5780601f106101d1576101008083540402835291602001916101fa565b820191905f5260205f20905b8154815290600101906020018083116101dd57829003601f168201915b505050505081526020016001820154815260200160028201805461021d90610886565b80601f016020809104026020016040519081016040528092919081815260200182805461024990610886565b80156102945780601f1061026b57610100808354040283529160200191610294565b820191905f5260205f20905b81548152906001019060200180831161027757829003601f168201915b5050505050815250509050805f015181602001518260400151935093509350509193909250565b60015f8273ffffffffffffffffffffffffffffffffffffffff1673ffffffffffffffffffffffffffffffffffffffff1681526020019081526020015f205f5f82015f610307919061049a565b600182015f9055600282015f61031d919061049a565b505050565b5f60405180606001604052808581526020018481526020018381525090508060015f3373ffffffffffffffffffffffffffffffffffffffff1673ffffffffffffffffffffffffffffffffffffffff1681526020019081526020015f205f820151815f0190816103919190610a56565b506020820151816001015560408201518160020190816103b19190610a56565b5090505050505050565b60405180606001604052808481526020018381526020018281525060015f3373ffffffffffffffffffffffffffffffffffffffff1673ffffffffffffffffffffffffffffffffffffffff1681526020019081526020015f205f820151815f0190816104269190610a56565b506020820151816001015560408201518160020190816104469190610a56565b50905050505050565b5f5f5f9054906101000a900473ffffffffffffffffffffffffffffffffffffffff16905090565b5f5f9054906101000a900473ffffffffffffffffffffffffffffffffffffffff1681565b5080546104a690610886565b5f825580601f106104b757506104d4565b601f0160209004905f5260205f20908101906104d391906104d7565b5b50565b5b808211156104ee575f815f9055506001016104d8565b5090565b5f604051905090565b5f5ffd5b5f5ffd5b5f73ffffffffffffffffffffffffffffffffffffffff82169050919050565b5f61052c82610503565b9050919050565b61053c81610522565b8114610546575f5ffd5b50565b5f8135905061055781610533565b92915050565b5f60208284031215610572576105716104fb565b5b5f61057f84828501610549565b91505092915050565b5f81519050919050565b5f82825260208201905092915050565b8281835e5f83830152505050565b5f601f19601f8301169050919050565b5f6105ca82610588565b6105d48185610592565b93506105e48185602086016105a2565b6105ed816105b0565b840191505092915050565b5f819050919050565b61060a816105f8565b82525050565b5f6060820190508181035f83015261062881866105c0565b90506106376020830185610601565b818103604083015261064981846105c0565b9050949350505050565b5f5ffd5b5f5ffd5b7f4e487b71000000000000000000000000000000000000000000000000000000005f52604160045260245ffd5b610691826105b0565b810181811067ffffffffffffffff821117156106b0576106af61065b565b5b80604052505050565b5f6106c26104f2565b90506106ce8282610688565b919050565b5f67ffffffffffffffff8211156106ed576106ec61065b565b5b6106f6826105b0565b9050602081019050919050565b828183375f83830152505050565b5f61072361071e846106d3565b6106b9565b90508281526020810184848401111561073f5761073e610657565b5b61074a848285610703565b509392505050565b5f82601f83011261076657610765610653565b5b8135610776848260208601610711565b91505092915050565b610788816105f8565b8114610792575f5ffd5b50565b5f813590506107a38161077f565b92915050565b5f5f5f606084860312156107c0576107bf6104fb565b5b5f84013567ffffffffffffffff8111156107dd576107dc6104ff565b5b6107e986828701610752565b93505060206107fa86828701610795565b925050604084013567ffffffffffffffff81111561081b5761081a6104ff565b5b61082786828701610752565b9150509250925092565b61083a81610522565b82525050565b5f6020820190506108535f830184610831565b92915050565b7f4e487b71000000000000000000000000000000000000000000000000000000005f52602260045260245ffd5b5f600282049050600182168061089d57607f821691505b6020821081036108b0576108af610859565b5b50919050565b5f819050815f5260205f209050919050565b5f6020601f8301049050919050565b5f82821b905092915050565b5f600883026109127fffffffffffffffffffffffffffffffffffffffffffffffffffffffffffffffff826108d7565b61091c86836108d7565b95508019841693508086168417925050509392505050565b5f819050919050565b5f61095761095261094d846105f8565b610934565b6105f8565b9050919050565b5f819050919050565b6109708361093d565b61098461097c8261095e565b8484546108e3565b825550505050565b5f5f905090565b61099b61098c565b6109a6818484610967565b505050565b5b818110156109c9576109be5f82610993565b6001810190506109ac565b5050565b601f821115610a0e576109df816108b6565b6109e8846108c8565b810160208510156109f7578190505b610a0b610a03856108c8565b8301826109ab565b50505b505050565b5f82821c905092915050565b5f610a2e5f1984600802610a13565b1980831691505092915050565b5f610a468383610a1f565b9150826002028217905092915050565b610a5f82610588565b67ffffffffffffffff811115610a7857610a7761065b565b5b610a828254610886565b610a8d8282856109cd565b5f60209050601f831160018114610abe575f8415610aac578287015190505b610ab68582610a3b565b865550610b1d565b601f198416610acc866108b6565b5f5b82811015610af357848901518255600182019150602085019450602081019050610ace565b86831015610b105784890151610b0c601f891682610a1f565b8355505b6001600288020188555050505b50505050505056fea2646970667358221220eef14a4f2f8ec59d345eeea55b8532aa9e737019e1ea6bb63a10f675a641876464736f6c634300081e0033","linkReferences":{}},"methodIdentifiers":{"deleteUser(address)":"5c60f226","getDetails(address)":"30289c61","getOwner()":"893d20e8","owner()":"8da5cb5b","store(string,uint256,string)":"662438b5","updateDetail(string,uint256,string)":"64493bc2"},"id":16}